{
  "contractName": "Review",
  "abi": [
    {
      "inputs": [],
      "stateMutability": "nonpayable",
      "type": "constructor"
    },
    {
      "anonymous": false,
      "inputs": [
        {
          "indexed": true,
          "internalType": "address",
          "name": "owner",
          "type": "address"
        },
        {
          "indexed": true,
          "internalType": "address",
          "name": "approved",
          "type": "address"
        },
        {
          "indexed": true,
          "internalType": "uint256",
          "name": "tokenId",
          "type": "uint256"
        }
      ],
      "name": "Approval",
      "type": "event"
    },
    {
      "anonymous": false,
      "inputs": [
        {
          "indexed": true,
          "internalType": "address",
          "name": "owner",
          "type": "address"
        },
        {
          "indexed": true,
          "internalType": "address",
          "name": "operator",
          "type": "address"
        },
        {
          "indexed": false,
          "internalType": "bool",
          "name": "approved",
          "type": "bool"
        }
      ],
      "name": "ApprovalForAll",
      "type": "event"
    },
    {
      "anonymous": false,
      "inputs": [
        {
          "indexed": true,
          "internalType": "address",
          "name": "from",
          "type": "address"
        },
        {
          "indexed": true,
          "internalType": "address",
          "name": "to",
          "type": "address"
        },
        {
          "indexed": true,
          "internalType": "uint256",
          "name": "tokenId",
          "type": "uint256"
        }
      ],
      "name": "Transfer",
      "type": "event"
    },
    {
      "inputs": [
        {
          "internalType": "address",
          "name": "to",
          "type": "address"
        },
        {
          "internalType": "uint256",
          "name": "tokenId",
          "type": "uint256"
        }
      ],
      "name": "approve",
      "outputs": [],
      "stateMutability": "nonpayable",
      "type": "function"
    },
    {
      "inputs": [
        {
          "internalType": "address",
          "name": "owner",
          "type": "address"
        }
      ],
      "name": "balanceOf",
      "outputs": [
        {
          "internalType": "uint256",
          "name": "",
          "type": "uint256"
        }
      ],
      "stateMutability": "view",
      "type": "function",
      "constant": true
    },
    {
      "inputs": [
        {
          "internalType": "uint256",
          "name": "tokenId",
          "type": "uint256"
        }
      ],
      "name": "getApproved",
      "outputs": [
        {
          "internalType": "address",
          "name": "",
          "type": "address"
        }
      ],
      "stateMutability": "view",
      "type": "function",
      "constant": true
    },
    {
      "inputs": [
        {
          "internalType": "address",
          "name": "owner",
          "type": "address"
        },
        {
          "internalType": "address",
          "name": "operator",
          "type": "address"
        }
      ],
      "name": "isApprovedForAll",
      "outputs": [
        {
          "internalType": "bool",
          "name": "",
          "type": "bool"
        }
      ],
      "stateMutability": "view",
      "type": "function",
      "constant": true
    },
    {
      "inputs": [],
      "name": "name",
      "outputs": [
        {
          "internalType": "string",
          "name": "",
          "type": "string"
        }
      ],
      "stateMutability": "view",
      "type": "function",
      "constant": true
    },
    {
      "inputs": [
        {
          "internalType": "uint256",
          "name": "tokenId",
          "type": "uint256"
        }
      ],
      "name": "ownerOf",
      "outputs": [
        {
          "internalType": "address",
          "name": "",
          "type": "address"
        }
      ],
      "stateMutability": "view",
      "type": "function",
      "constant": true
    },
    {
      "inputs": [
        {
          "internalType": "address",
          "name": "from",
          "type": "address"
        },
        {
          "internalType": "address",
          "name": "to",
          "type": "address"
        },
        {
          "internalType": "uint256",
          "name": "tokenId",
          "type": "uint256"
        }
      ],
      "name": "safeTransferFrom",
      "outputs": [],
      "stateMutability": "nonpayable",
      "type": "function"
    },
    {
      "inputs": [
        {
          "internalType": "address",
          "name": "from",
          "type": "address"
        },
        {
          "internalType": "address",
          "name": "to",
          "type": "address"
        },
        {
          "internalType": "uint256",
          "name": "tokenId",
          "type": "uint256"
        },
        {
          "internalType": "bytes",
          "name": "data",
          "type": "bytes"
        }
      ],
      "name": "safeTransferFrom",
      "outputs": [],
      "stateMutability": "nonpayable",
      "type": "function"
    },
    {
      "inputs": [
        {
          "internalType": "address",
          "name": "operator",
          "type": "address"
        },
        {
          "internalType": "bool",
          "name": "approved",
          "type": "bool"
        }
      ],
      "name": "setApprovalForAll",
      "outputs": [],
      "stateMutability": "nonpayable",
      "type": "function"
    },
    {
      "inputs": [
        {
          "internalType": "bytes4",
          "name": "interfaceId",
          "type": "bytes4"
        }
      ],
      "name": "supportsInterface",
      "outputs": [
        {
          "internalType": "bool",
          "name": "",
          "type": "bool"
        }
      ],
      "stateMutability": "view",
      "type": "function",
      "constant": true
    },
    {
      "inputs": [],
      "name": "symbol",
      "outputs": [
        {
          "internalType": "string",
          "name": "",
          "type": "string"
        }
      ],
      "stateMutability": "view",
      "type": "function",
      "constant": true
    },
    {
      "inputs": [
        {
          "internalType": "uint256",
          "name": "tokenId",
          "type": "uint256"
        }
      ],
      "name": "tokenURI",
      "outputs": [
        {
          "internalType": "string",
          "name": "",
          "type": "string"
        }
      ],
      "stateMutability": "view",
      "type": "function",
      "constant": true
    },
    {
      "inputs": [
        {
          "internalType": "address",
          "name": "from",
          "type": "address"
        },
        {
          "internalType": "address",
          "name": "to",
          "type": "address"
        },
        {
          "internalType": "uint256",
          "name": "tokenId",
          "type": "uint256"
        }
      ],
      "name": "transferFrom",
      "outputs": [],
      "stateMutability": "nonpayable",
      "type": "function"
    },
    {
      "inputs": [
        {
          "internalType": "address",
          "name": "business",
          "type": "address"
        },
        {
          "internalType": "uint8",
          "name": "rating",
          "type": "uint8"
        },
        {
          "internalType": "string",
          "name": "comment",
          "type": "string"
        }
      ],
      "name": "submitReview",
      "outputs": [],
      "stateMutability": "nonpayable",
      "type": "function"
    },
    {
      "inputs": [
        {
          "internalType": "uint256",
          "name": "reviewId",
          "type": "uint256"
        }
      ],
      "name": "getReview",
      "outputs": [
        {
          "components": [
            {
              "internalType": "address",
              "name": "author",
              "type": "address"
            },
            {
              "internalType": "address",
              "name": "business",
              "type": "address"
            },
            {
              "internalType": "uint8",
              "name": "rating",
              "type": "uint8"
            },
            {
              "internalType": "string",
              "name": "comment",
              "type": "string"
            }
          ],
          "internalType": "struct Review.ReviewData",
          "name": "",
          "type": "tuple"
        }
      ],
      "stateMutability": "view",
      "type": "function",
      "constant": true
    }
  ],
  "bytecode": "0x60806040523480156200001157600080fd5b506040518060400160405280600b81526020017f526576696577546f6b656e0000000000000000000000000000000000000000008152506040518060400160405280600481526020017f524556540000000000000000000000000000000000000000000000000000000081525081600090816200008f919062000324565b508060019081620000a1919062000324565b5050506200040b565b600081519050919050565b7f4e487b7100000000000000000000000000000000000000000000000000000000600052604160045260246000fd5b7f4e487b7100000000000000000000000000000000000000000000000000000000600052602260045260246000fd5b600060028204905060018216806200012c57607f821691505b602082108103620001425762000141620000e4565b5b50919050565b60008190508160005260206000209050919050565b60006020601f8301049050919050565b600082821b905092915050565b600060088302620001ac7fffffffffffffffffffffffffffffffffffffffffffffffffffffffffffffffff826200016d565b620001b886836200016d565b95508019841693508086168417925050509392505050565b6000819050919050565b6000819050919050565b600062000205620001ff620001f984620001d0565b620001da565b620001d0565b9050919050565b6000819050919050565b6200022183620001e4565b6200023962000230826200020c565b8484546200017a565b825550505050565b600090565b6200025062000241565b6200025d81848462000216565b505050565b5b8181101562000285576200027960008262000246565b60018101905062000263565b5050565b601f821115620002d4576200029e8162000148565b620002a9846200015d565b81016020851015620002b9578190505b620002d1620002c8856200015d565b83018262000262565b50505b505050565b600082821c905092915050565b6000620002f960001984600802620002d9565b1980831691505092915050565b6000620003148383620002e6565b9150826002028217905092915050565b6200032f82620000aa565b67ffffffffffffffff8111156200034b576200034a620000b5565b5b62000357825462000113565b6200036482828562000289565b600060209050601f8311600181146200039c576000841562000387578287015190505b62000393858262000306565b86555062000403565b601f198416620003ac8662000148565b60005b82811015620003d657848901518255600182019150602085019450602081019050620003af565b86831015620003f65784890151620003f2601f891682620002e6565b8355505b6001600288020188555050505b505050505050565b612d03806200041b6000396000f3fe608060405234801561001057600080fd5b50600436106100f55760003560e01c80636352211e11610097578063a22cb46511610066578063a22cb46514610296578063b88d4fde146102b2578063c87b56dd146102ce578063e985e9c5146102fe576100f5565b80636352211e146101e857806370a082311461021857806395d89b4114610248578063990581b614610266576100f5565b8063095ea7b3116100d3578063095ea7b31461017857806323b872dd1461019457806342842e0e146101b057806355495f1f146101cc576100f5565b806301ffc9a7146100fa57806306fdde031461012a578063081812fc14610148575b600080fd5b610114600480360381019061010f9190611adf565b61032e565b6040516101219190611b27565b60405180910390f35b610132610410565b60405161013f9190611bd2565b60405180910390f35b610162600480360381019061015d9190611c2a565b6104a2565b60405161016f9190611c98565b60405180910390f35b610192600480360381019061018d9190611cdf565b6104e8565b005b6101ae60048036038101906101a99190611d1f565b6105ff565b005b6101ca60048036038101906101c59190611d1f565b61065f565b005b6101e660048036038101906101e19190611ee0565b61067f565b005b61020260048036038101906101fd9190611c2a565b610798565b60405161020f9190611c98565b60405180910390f35b610232600480360381019061022d9190611f4f565b61081e565b60405161023f9190611f8b565b60405180910390f35b6102506108d5565b60405161025d9190611bd2565b60405180910390f35b610280600480360381019061027b9190611c2a565b610967565b60405161028d9190612071565b60405180910390f35b6102b060048036038101906102ab91906120bf565b610b2f565b005b6102cc60048036038101906102c791906121a0565b610b45565b005b6102e860048036038101906102e39190611c2a565b610ba7565b6040516102f59190611bd2565b60405180910390f35b61031860048036038101906103139190612223565b610c0f565b6040516103259190611b27565b60405180910390f35b60007f80ac58cd000000000000000000000000000000000000000000000000000000007bffffffffffffffffffffffffffffffffffffffffffffffffffffffff1916827bffffffffffffffffffffffffffffffffffffffffffffffffffffffff191614806103f957507f5b5e139f000000000000000000000000000000000000000000000000000000007bffffffffffffffffffffffffffffffffffffffffffffffffffffffff1916827bffffffffffffffffffffffffffffffffffffffffffffffffffffffff1916145b80610409575061040882610ca3565b5b9050919050565b60606000805461041f90612292565b80601f016020809104026020016040519081016040528092919081815260200182805461044b90612292565b80156104985780601f1061046d57610100808354040283529160200191610498565b820191906000526020600020905b81548152906001019060200180831161047b57829003601f168201915b5050505050905090565b60006104ad82610d0d565b6004600083815260200190815260200160002060009054906101000a900473ffffffffffffffffffffffffffffffffffffffff169050919050565b60006104f382610798565b90508073ffffffffffffffffffffffffffffffffffffffff168373ffffffffffffffffffffffffffffffffffffffff1603610563576040517f08c379a000000000000000000000000000000000000000000000000000000000815260040161055a90612335565b60405180910390fd5b8073ffffffffffffffffffffffffffffffffffffffff16610582610d58565b73ffffffffffffffffffffffffffffffffffffffff1614806105b157506105b0816105ab610d58565b610c0f565b5b6105f0576040517f08c379a00000000000000000000000000000000000000000000000000000000081526004016105e7906123c7565b60405180910390fd5b6105fa8383610d60565b505050565b61061061060a610d58565b82610e19565b61064f576040517f08c379a000000000000000000000000000000000000000000000000000000000815260040161064690612459565b60405180910390fd5b61065a838383610eae565b505050565b61067a83838360405180602001604052806000815250610b45565b505050565b61068960066111a7565b600061069560066111bd565b90506106a133826111cb565b336007600083815260200190815260200160002060006101000a81548173ffffffffffffffffffffffffffffffffffffffff021916908373ffffffffffffffffffffffffffffffffffffffff160217905550836008600083815260200190815260200160002060006101000a81548173ffffffffffffffffffffffffffffffffffffffff021916908373ffffffffffffffffffffffffffffffffffffffff160217905550826009600083815260200190815260200160002060006101000a81548160ff021916908360ff16021790555081600a600083815260200190815260200160002090816107919190612625565b5050505050565b6000806107a4836113e8565b9050600073ffffffffffffffffffffffffffffffffffffffff168173ffffffffffffffffffffffffffffffffffffffff1603610815576040517f08c379a000000000000000000000000000000000000000000000000000000000815260040161080c90612743565b60405180910390fd5b80915050919050565b60008073ffffffffffffffffffffffffffffffffffffffff168273ffffffffffffffffffffffffffffffffffffffff160361088e576040517f08c379a0000000000000000000000000000000000000000000000000000000008152600401610885906127d5565b60405180910390fd5b600360008373ffffffffffffffffffffffffffffffffffffffff1673ffffffffffffffffffffffffffffffffffffffff168152602001908152602001600020549050919050565b6060600180546108e490612292565b80601f016020809104026020016040519081016040528092919081815260200182805461091090612292565b801561095d5780601f106109325761010080835404028352916020019161095d565b820191906000526020600020905b81548152906001019060200180831161094057829003601f168201915b5050505050905090565b61096f611a1c565b61097882611425565b6109b7576040517f08c379a00000000000000000000000000000000000000000000000000000000081526004016109ae90612841565b60405180910390fd5b60405180608001604052806007600085815260200190815260200160002060009054906101000a900473ffffffffffffffffffffffffffffffffffffffff1673ffffffffffffffffffffffffffffffffffffffff1681526020016008600085815260200190815260200160002060009054906101000a900473ffffffffffffffffffffffffffffffffffffffff1673ffffffffffffffffffffffffffffffffffffffff1681526020016009600085815260200190815260200160002060009054906101000a900460ff1660ff168152602001600a60008581526020019081526020016000208054610aa790612292565b80601f0160208091040260200160405190810160405280929190818152602001828054610ad390612292565b8015610b205780601f10610af557610100808354040283529160200191610b20565b820191906000526020600020905b815481529060010190602001808311610b0357829003601f168201915b50505050508152509050919050565b610b41610b3a610d58565b8383611466565b5050565b610b56610b50610d58565b83610e19565b610b95576040517f08c379a0000000000000000000000000000000000000000000000000000000008152600401610b8c90612459565b60405180910390fd5b610ba1848484846115d2565b50505050565b6060610bb282610d0d565b6000610bbc61162e565b90506000815111610bdc5760405180602001604052806000815250610c07565b80610be684611645565b604051602001610bf792919061289d565b6040516020818303038152906040525b915050919050565b6000600560008473ffffffffffffffffffffffffffffffffffffffff1673ffffffffffffffffffffffffffffffffffffffff16815260200190815260200160002060008373ffffffffffffffffffffffffffffffffffffffff1673ffffffffffffffffffffffffffffffffffffffff16815260200190815260200160002060009054906101000a900460ff16905092915050565b60007f01ffc9a7000000000000000000000000000000000000000000000000000000007bffffffffffffffffffffffffffffffffffffffffffffffffffffffff1916827bffffffffffffffffffffffffffffffffffffffffffffffffffffffff1916149050919050565b610d1681611425565b610d55576040517f08c379a0000000000000000000000000000000000000000000000000000000008152600401610d4c90612743565b60405180910390fd5b50565b600033905090565b816004600083815260200190815260200160002060006101000a81548173ffffffffffffffffffffffffffffffffffffffff021916908373ffffffffffffffffffffffffffffffffffffffff160217905550808273ffffffffffffffffffffffffffffffffffffffff16610dd383610798565b73ffffffffffffffffffffffffffffffffffffffff167f8c5be1e5ebec7d5bd14f71427d1e84f3dd0314c0f7b2291e5b200ac8c7c3b92560405160405180910390a45050565b600080610e2583610798565b90508073ffffffffffffffffffffffffffffffffffffffff168473ffffffffffffffffffffffffffffffffffffffff161480610e675750610e668185610c0f565b5b80610ea557508373ffffffffffffffffffffffffffffffffffffffff16610e8d846104a2565b73ffffffffffffffffffffffffffffffffffffffff16145b91505092915050565b8273ffffffffffffffffffffffffffffffffffffffff16610ece82610798565b73ffffffffffffffffffffffffffffffffffffffff1614610f24576040517f08c379a0000000000000000000000000000000000000000000000000000000008152600401610f1b90612933565b60405180910390fd5b600073ffffffffffffffffffffffffffffffffffffffff168273ffffffffffffffffffffffffffffffffffffffff1603610f93576040517f08c379a0000000000000000000000000000000000000000000000000000000008152600401610f8a906129c5565b60405180910390fd5b610fa08383836001611713565b8273ffffffffffffffffffffffffffffffffffffffff16610fc082610798565b73ffffffffffffffffffffffffffffffffffffffff1614611016576040517f08c379a000000000000000000000000000000000000000000000000000000000815260040161100d90612933565b60405180910390fd5b6004600082815260200190815260200160002060006101000a81549073ffffffffffffffffffffffffffffffffffffffff02191690556001600360008573ffffffffffffffffffffffffffffffffffffffff1673ffffffffffffffffffffffffffffffffffffffff168152602001908152602001600020600082825403925050819055506001600360008473ffffffffffffffffffffffffffffffffffffffff1673ffffffffffffffffffffffffffffffffffffffff16815260200190815260200160002060008282540192505081905550816002600083815260200190815260200160002060006101000a81548173ffffffffffffffffffffffffffffffffffffffff021916908373ffffffffffffffffffffffffffffffffffffffff160217905550808273ffffffffffffffffffffffffffffffffffffffff168473ffffffffffffffffffffffffffffffffffffffff167fddf252ad1be2c89b69c2b068fc378daa952ba7f163c4a11628f55a4df523b3ef60405160405180910390a46111a28383836001611719565b505050565b6001816000016000828254019250508190555050565b600081600001549050919050565b600073ffffffffffffffffffffffffffffffffffffffff168273ffffffffffffffffffffffffffffffffffffffff160361123a576040517f08c379a000000000000000000000000000000000000000000000000000000000815260040161123190612a31565b60405180910390fd5b61124381611425565b15611283576040517f08c379a000000000000000000000000000000000000000000000000000000000815260040161127a90612a9d565b60405180910390fd5b611291600083836001611713565b61129a81611425565b156112da576040517f08c379a00000000000000000000000000000000000000000000000000000000081526004016112d190612a9d565b60405180910390fd5b6001600360008473ffffffffffffffffffffffffffffffffffffffff1673ffffffffffffffffffffffffffffffffffffffff16815260200190815260200160002060008282540192505081905550816002600083815260200190815260200160002060006101000a81548173ffffffffffffffffffffffffffffffffffffffff021916908373ffffffffffffffffffffffffffffffffffffffff160217905550808273ffffffffffffffffffffffffffffffffffffffff16600073ffffffffffffffffffffffffffffffffffffffff167fddf252ad1be2c89b69c2b068fc378daa952ba7f163c4a11628f55a4df523b3ef60405160405180910390a46113e4600083836001611719565b5050565b60006002600083815260200190815260200160002060009054906101000a900473ffffffffffffffffffffffffffffffffffffffff169050919050565b60008073ffffffffffffffffffffffffffffffffffffffff16611447836113e8565b73ffffffffffffffffffffffffffffffffffffffff1614159050919050565b8173ffffffffffffffffffffffffffffffffffffffff168373ffffffffffffffffffffffffffffffffffffffff16036114d4576040517f08c379a00000000000000000000000000000000000000000000000000000000081526004016114cb90612b09565b60405180910390fd5b80600560008573ffffffffffffffffffffffffffffffffffffffff1673ffffffffffffffffffffffffffffffffffffffff16815260200190815260200160002060008473ffffffffffffffffffffffffffffffffffffffff1673ffffffffffffffffffffffffffffffffffffffff16815260200190815260200160002060006101000a81548160ff0219169083151502179055508173ffffffffffffffffffffffffffffffffffffffff168373ffffffffffffffffffffffffffffffffffffffff167f17307eab39ab6107e8899845ad3d59bd9653f200f220920489ca2b5937696c31836040516115c59190611b27565b60405180910390a3505050565b6115dd848484610eae565b6115e98484848461171f565b611628576040517f08c379a000000000000000000000000000000000000000000000000000000000815260040161161f90612b9b565b60405180910390fd5b50505050565b606060405180602001604052806000815250905090565b606060006001611654846118a6565b01905060008167ffffffffffffffff81111561167357611672611db5565b5b6040519080825280601f01601f1916602001820160405280156116a55781602001600182028036833780820191505090505b509050600082602001820190505b600115611708578080600190039150507f3031323334353637383961626364656600000000000000000000000000000000600a86061a8153600a85816116fc576116fb612bbb565b5b049450600085036116b3575b819350505050919050565b50505050565b50505050565b60006117408473ffffffffffffffffffffffffffffffffffffffff166119f9565b15611899578373ffffffffffffffffffffffffffffffffffffffff1663150b7a02611769610d58565b8786866040518563ffffffff1660e01b815260040161178b9493929190612c3f565b6020604051808303816000875af19250505080156117c757506040513d601f19601f820116820180604052508101906117c49190612ca0565b60015b611849573d80600081146117f7576040519150601f19603f3d011682016040523d82523d6000602084013e6117fc565b606091505b506000815103611841576040517f08c379a000000000000000000000000000000000000000000000000000000000815260040161183890612b9b565b60405180910390fd5b805181602001fd5b63150b7a0260e01b7bffffffffffffffffffffffffffffffffffffffffffffffffffffffff1916817bffffffffffffffffffffffffffffffffffffffffffffffffffffffff19161491505061189e565b600190505b949350505050565b600080600090507a184f03e93ff9f4daa797ed6e38ed64bf6a1f0100000000000000008310611904577a184f03e93ff9f4daa797ed6e38ed64bf6a1f01000000000000000083816118fa576118f9612bbb565b5b0492506040810190505b6d04ee2d6d415b85acef81000000008310611941576d04ee2d6d415b85acef8100000000838161193757611936612bbb565b5b0492506020810190505b662386f26fc10000831061197057662386f26fc10000838161196657611965612bbb565b5b0492506010810190505b6305f5e1008310611999576305f5e100838161198f5761198e612bbb565b5b0492506008810190505b61271083106119be5761271083816119b4576119b3612bbb565b5b0492506004810190505b606483106119e157606483816119d7576119d6612bbb565b5b0492506002810190505b600a83106119f0576001810190505b80915050919050565b6000808273ffffffffffffffffffffffffffffffffffffffff163b119050919050565b6040518060800160405280600073ffffffffffffffffffffffffffffffffffffffff168152602001600073ffffffffffffffffffffffffffffffffffffffff168152602001600060ff168152602001606081525090565b6000604051905090565b600080fd5b600080fd5b60007fffffffff0000000000000000000000000000000000000000000000000000000082169050919050565b611abc81611a87565b8114611ac757600080fd5b50565b600081359050611ad981611ab3565b92915050565b600060208284031215611af557611af4611a7d565b5b6000611b0384828501611aca565b91505092915050565b60008115159050919050565b611b2181611b0c565b82525050565b6000602082019050611b3c6000830184611b18565b92915050565b600081519050919050565b600082825260208201905092915050565b60005b83811015611b7c578082015181840152602081019050611b61565b60008484015250505050565b6000601f19601f8301169050919050565b6000611ba482611b42565b611bae8185611b4d565b9350611bbe818560208601611b5e565b611bc781611b88565b840191505092915050565b60006020820190508181036000830152611bec8184611b99565b905092915050565b6000819050919050565b611c0781611bf4565b8114611c1257600080fd5b50565b600081359050611c2481611bfe565b92915050565b600060208284031215611c4057611c3f611a7d565b5b6000611c4e84828501611c15565b91505092915050565b600073ffffffffffffffffffffffffffffffffffffffff82169050919050565b6000611c8282611c57565b9050919050565b611c9281611c77565b82525050565b6000602082019050611cad6000830184611c89565b92915050565b611cbc81611c77565b8114611cc757600080fd5b50565b600081359050611cd981611cb3565b92915050565b60008060408385031215611cf657611cf5611a7d565b5b6000611d0485828601611cca565b9250506020611d1585828601611c15565b9150509250929050565b600080600060608486031215611d3857611d37611a7d565b5b6000611d4686828701611cca565b9350506020611d5786828701611cca565b9250506040611d6886828701611c15565b9150509250925092565b600060ff82169050919050565b611d8881611d72565b8114611d9357600080fd5b50565b600081359050611da581611d7f565b92915050565b600080fd5b600080fd5b7f4e487b7100000000000000000000000000000000000000000000000000000000600052604160045260246000fd5b611ded82611b88565b810181811067ffffffffffffffff82111715611e0c57611e0b611db5565b5b80604052505050565b6000611e1f611a73565b9050611e2b8282611de4565b919050565b600067ffffffffffffffff821115611e4b57611e4a611db5565b5b611e5482611b88565b9050602081019050919050565b82818337600083830152505050565b6000611e83611e7e84611e30565b611e15565b905082815260208101848484011115611e9f57611e9e611db0565b5b611eaa848285611e61565b509392505050565b600082601f830112611ec757611ec6611dab565b5b8135611ed7848260208601611e70565b91505092915050565b600080600060608486031215611ef957611ef8611a7d565b5b6000611f0786828701611cca565b9350506020611f1886828701611d96565b925050604084013567ffffffffffffffff811115611f3957611f38611a82565b5b611f4586828701611eb2565b9150509250925092565b600060208284031215611f6557611f64611a7d565b5b6000611f7384828501611cca565b91505092915050565b611f8581611bf4565b82525050565b6000602082019050611fa06000830184611f7c565b92915050565b611faf81611c77565b82525050565b611fbe81611d72565b82525050565b600082825260208201905092915050565b6000611fe082611b42565b611fea8185611fc4565b9350611ffa818560208601611b5e565b61200381611b88565b840191505092915050565b60006080830160008301516120266000860182611fa6565b5060208301516120396020860182611fa6565b50604083015161204c6040860182611fb5565b50606083015184820360608601526120648282611fd5565b9150508091505092915050565b6000602082019050818103600083015261208b818461200e565b905092915050565b61209c81611b0c565b81146120a757600080fd5b50565b6000813590506120b981612093565b92915050565b600080604083850312156120d6576120d5611a7d565b5b60006120e485828601611cca565b92505060206120f5858286016120aa565b9150509250929050565b600067ffffffffffffffff82111561211a57612119611db5565b5b61212382611b88565b9050602081019050919050565b600061214361213e846120ff565b611e15565b90508281526020810184848401111561215f5761215e611db0565b5b61216a848285611e61565b509392505050565b600082601f83011261218757612186611dab565b5b8135612197848260208601612130565b91505092915050565b600080600080608085870312156121ba576121b9611a7d565b5b60006121c887828801611cca565b94505060206121d987828801611cca565b93505060406121ea87828801611c15565b925050606085013567ffffffffffffffff81111561220b5761220a611a82565b5b61221787828801612172565b91505092959194509250565b6000806040838503121561223a57612239611a7d565b5b600061224885828601611cca565b925050602061225985828601611cca565b9150509250929050565b7f4e487b7100000000000000000000000000000000000000000000000000000000600052602260045260246000fd5b600060028204905060018216806122aa57607f821691505b6020821081036122bd576122bc612263565b5b50919050565b7f4552433732313a20617070726f76616c20746f2063757272656e74206f776e6560008201527f7200000000000000000000000000000000000000000000000000000000000000602082015250565b600061231f602183611b4d565b915061232a826122c3565b604082019050919050565b6000602082019050818103600083015261234e81612312565b9050919050565b7f4552433732313a20617070726f76652063616c6c6572206973206e6f7420746f60008201527f6b656e206f776e6572206f7220617070726f76656420666f7220616c6c000000602082015250565b60006123b1603d83611b4d565b91506123bc82612355565b604082019050919050565b600060208201905081810360008301526123e0816123a4565b9050919050565b7f4552433732313a2063616c6c6572206973206e6f7420746f6b656e206f776e6560008201527f72206f7220617070726f76656400000000000000000000000000000000000000602082015250565b6000612443602d83611b4d565b915061244e826123e7565b604082019050919050565b6000602082019050818103600083015261247281612436565b9050919050565b60008190508160005260206000209050919050565b60006020601f8301049050919050565b600082821b905092915050565b6000600883026124db7fffffffffffffffffffffffffffffffffffffffffffffffffffffffffffffffff8261249e565b6124e5868361249e565b95508019841693508086168417925050509392505050565b6000819050919050565b600061252261251d61251884611bf4565b6124fd565b611bf4565b9050919050565b6000819050919050565b61253c83612507565b61255061254882612529565b8484546124ab565b825550505050565b600090565b612565612558565b612570818484612533565b505050565b5b818110156125945761258960008261255d565b600181019050612576565b5050565b601f8211156125d9576125aa81612479565b6125b38461248e565b810160208510156125c2578190505b6125d66125ce8561248e565b830182612575565b50505b505050565b600082821c905092915050565b60006125fc600019846008026125de565b1980831691505092915050565b600061261583836125eb565b9150826002028217905092915050565b61262e82611b42565b67ffffffffffffffff81111561264757612646611db5565b5b6126518254612292565b61265c828285612598565b600060209050601f83116001811461268f576000841561267d578287015190505b6126878582612609565b8655506126ef565b601f19841661269d86612479565b60005b828110156126c5578489015182556001820191506020850194506020810190506126a0565b868310156126e257848901516126de601f8916826125eb565b8355505b6001600288020188555050505b505050505050565b7f4552433732313a20696e76616c696420746f6b656e2049440000000000000000600082015250565b600061272d601883611b4d565b9150612738826126f7565b602082019050919050565b6000602082019050818103600083015261275c81612720565b9050919050565b7f4552433732313a2061646472657373207a65726f206973206e6f74206120766160008201527f6c6964206f776e65720000000000000000000000000000000000000000000000602082015250565b60006127bf602983611b4d565b91506127ca82612763565b604082019050919050565b600060208201905081810360008301526127ee816127b2565b9050919050565b7f52657669657720646f6573206e6f742065786973740000000000000000000000600082015250565b600061282b601583611b4d565b9150612836826127f5565b602082019050919050565b6000602082019050818103600083015261285a8161281e565b9050919050565b600081905092915050565b600061287782611b42565b6128818185612861565b9350612891818560208601611b5e565b80840191505092915050565b60006128a9828561286c565b91506128b5828461286c565b91508190509392505050565b7f4552433732313a207472616e736665722066726f6d20696e636f72726563742060008201527f6f776e6572000000000000000000000000000000000000000000000000000000602082015250565b600061291d602583611b4d565b9150612928826128c1565b604082019050919050565b6000602082019050818103600083015261294c81612910565b9050919050565b7f4552433732313a207472616e7366657220746f20746865207a65726f2061646460008201527f7265737300000000000000000000000000000000000000000000000000000000602082015250565b60006129af602483611b4d565b91506129ba82612953565b604082019050919050565b600060208201905081810360008301526129de816129a2565b9050919050565b7f4552433732313a206d696e7420746f20746865207a65726f2061646472657373600082015250565b6000612a1b602083611b4d565b9150612a26826129e5565b602082019050919050565b60006020820190508181036000830152612a4a81612a0e565b9050919050565b7f4552433732313a20746f6b656e20616c7265616479206d696e74656400000000600082015250565b6000612a87601c83611b4d565b9150612a9282612a51565b602082019050919050565b60006020820190508181036000830152612ab681612a7a565b9050919050565b7f4552433732313a20617070726f766520746f2063616c6c657200000000000000600082015250565b6000612af3601983611b4d565b9150612afe82612abd565b602082019050919050565b60006020820190508181036000830152612b2281612ae6565b9050919050565b7f4552433732313a207472616e7366657220746f206e6f6e20455243373231526560008201527f63656976657220696d706c656d656e7465720000000000000000000000000000602082015250565b6000612b85603283611b4d565b9150612b9082612b29565b604082019050919050565b60006020820190508181036000830152612bb481612b78565b9050919050565b7f4e487b7100000000000000000000000000000000000000000000000000000000600052601260045260246000fd5b600081519050919050565b600082825260208201905092915050565b6000612c1182612bea565b612c1b8185612bf5565b9350612c2b818560208601611b5e565b612c3481611b88565b840191505092915050565b6000608082019050612c546000830187611c89565b612c616020830186611c89565b612c6e6040830185611f7c565b8181036060830152612c808184612c06565b905095945050505050565b600081519050612c9a81611ab3565b92915050565b600060208284031215612cb657612cb5611a7d565b5b6000612cc484828501612c8b565b9150509291505056fea2646970667358221220302cdc5f95ee95f075720f8daae58e0e9281c7903b4ad03c30ca06d1ba56a31164736f6c63430008130033",
  "immutableReferences": {},
  "source": "// SPDX-License-Identifier: UNLICENSED\npragma solidity ^0.8.0;\n\nimport \"@openzeppelin/contracts/token/ERC721/ERC721.sol\";\nimport \"@openzeppelin/contracts/utils/Counters.sol\";\n\ncontract Review is ERC721 {\n    using Counters for Counters.Counter;\n    Counters.Counter private _reviewIds;\n\n    struct ReviewData {\n        address author;\n        address business;\n        uint8 rating;\n        string comment;\n    }\n\n    mapping (uint256 => address) private _reviewAuthors;\n    mapping (uint256 => address) private _reviewBusinesses;\n    mapping (uint256 => uint8) private _reviewRatings;\n    mapping (uint256 => string) private _reviewComments;\n\n    constructor() ERC721(\"ReviewToken\", \"REVT\") {}\n\n    function submitReview(address business, uint8 rating, string memory comment) public {\n        _reviewIds.increment();\n        uint256 newReviewId = _reviewIds.current();\n        _mint(msg.sender, newReviewId);\n        _reviewAuthors[newReviewId] = msg.sender;\n        _reviewBusinesses[newReviewId] = business;\n        _reviewRatings[newReviewId] = rating;\n        _reviewComments[newReviewId] = comment;\n    }\n\n    function getReview(uint256 reviewId) public view returns (ReviewData memory) {\n        require(_exists(reviewId), \"Review does not exist\");\n        return ReviewData({\n            author: _reviewAuthors[reviewId],\n            business: _reviewBusinesses[reviewId],\n            rating: _reviewRatings[reviewId],\n            comment: _reviewComments[reviewId]\n        });\n    }\n}\n",
  "sourcePath": "/Users/amirh/Documents/Chatgpt/TrustPilotBlockchainV2/trustpilot-clone-v2/ethereum/contracts/Review.sol",
  "compiler": {
    "name": "solc",
    "version": "0.8.19+commit.7dd6d404.Emscripten.clang"
  },
  "schemaVersion": "3.4.13",
  "updatedAt": "2023-05-12T07:31:00.524Z",
  "networkType": "ethereum",
  "devdoc": {
    "events": {
      "Approval(address,address,uint256)": {
        "details": "Emitted when `owner` enables `approved` to manage the `tokenId` token."
      },
      "ApprovalForAll(address,address,bool)": {
        "details": "Emitted when `owner` enables or disables (`approved`) `operator` to manage all of its assets."
      },
      "Transfer(address,address,uint256)": {
        "details": "Emitted when `tokenId` token is transferred from `from` to `to`."
      }
    },
    "kind": "dev",
    "methods": {
      "approve(address,uint256)": {
        "details": "See {IERC721-approve}."
      },
      "balanceOf(address)": {
        "details": "See {IERC721-balanceOf}."
      },
      "getApproved(uint256)": {
        "details": "See {IERC721-getApproved}."
      },
      "isApprovedForAll(address,address)": {
        "details": "See {IERC721-isApprovedForAll}."
      },
      "name()": {
        "details": "See {IERC721Metadata-name}."
      },
      "ownerOf(uint256)": {
        "details": "See {IERC721-ownerOf}."
      },
      "safeTransferFrom(address,address,uint256)": {
        "details": "See {IERC721-safeTransferFrom}."
      },
      "safeTransferFrom(address,address,uint256,bytes)": {
        "details": "See {IERC721-safeTransferFrom}."
      },
      "setApprovalForAll(address,bool)": {
        "details": "See {IERC721-setApprovalForAll}."
      },
      "supportsInterface(bytes4)": {
        "details": "See {IERC165-supportsInterface}."
      },
      "symbol()": {
        "details": "See {IERC721Metadata-symbol}."
      },
      "tokenURI(uint256)": {
        "details": "See {IERC721Metadata-tokenURI}."
      },
      "transferFrom(address,address,uint256)": {
        "details": "See {IERC721-transferFrom}."
      }
    },
    "version": 1
  },
  "userdoc": {
    "kind": "user",
    "methods": {},
    "version": 1
  }
}